:1000000040C019C3F1C262C061C060C05FC05EC0C1
:100010005DC0A0C237C35AC059C058C057C056C0EF
:1000200055C054C053C000000000370034003100F8
:100030000000000038003500320004040404040409
:100040000404020202020202030303030303010287
:100050000408102040800102040810200102040856
:100060001020000000000000000000030406000053
:1000700000000000000000000000360033003000E7
:10008000E70311241FBECFE5D4E0DEBFCDBF10E0F3
:10009000A0E6B0E0EEE8F8E002C005900D92A436CC
:1000A000B107D9F720E0A4E6B0E001C01D92A43A60
:1000B000B207E1F710E0C1E4D0E003C02197FE01F0
:1000C000DED3C034D107D1F730D3DFC399CF8F92BD
:1000D0009F92AF92BF92CF92DF92EF92FF92CF9317
:1000E000DF93A0919900882311F03A2F01C030E0EE
:1000F00080919A0090E0880F991F8A589F4FC09076
:100100009F00D090A000E090A100F090A20040E0FD
:1001100050E0BA01FC01C591D49128812A23231310
:100120000FC04A015B012FEF821A920AA20AB20A9B
:100130004C155D056E057F0538F4B501A401EACFC5
:10014000342F252FCB0104C030E020E080E090E088
:10015000632F722FDF91CF91FF90EF90DF90CF90C0
:10016000BF90AF909F908F900895843039F0863083
:1001700049F0833051F48FB58F7702C08FB58F7DF2
:100180008FBD089585B58F7D85BD08951F93CF934D
:10019000DF93282F30E0F901EE59FF4F8491F901E8
:1001A000E25BFF4FD491F901E65CFF4FC491CC2391
:1001B000C1F0162F8111D9DFEC2FF0E0EE0FFF1FF9
:1001C000E05DFF4FA591B4918FB7F894111105C070
:1001D0009C91ED2FE095E92302C0EC91ED2BEC937F
:1001E0008FBFDF91CF911F910895CF93DF9390E060
:1001F000FC01E25BFF4F2491FC01E65CFF4F849120
:10020000882361F190E0880F991FFC01EA5DFF4FA0
:10021000C591D491FC01E05DFF4FA591B4916111AE
:1002200009C09FB7F8948881209582238883EC9138
:100230002E230BC0623061F49FB7F8943881822F6F
:10024000809583238883EC912E2B2C939FBF06C02F
:100250008FB7F894E8812E2B28838FBFDF91CF9141
:1002600008953FB7F89480918A0090918B00A091F7
:100270008C00B0918D0022B708B600FE05C02F3F5C
:1002800019F00196A11DB11D3FBFBA2FA92F982FBC
:100290008827820F911DA11DB11DBC01CD0143E036
:1002A000660F771F881F991F4A95D1F708958F927F
:1002B0009F92AF92BF92CF92DF92EF92FF926B012B
:1002C0007C01CFDF4B015C01C114D104E104F104D6
:1002D000E9F0C7DFDC01CB0188199909AA09BB093C
:1002E000883E9340A105B10578F321E0C21AD108F8
:1002F000E108F10888EE880E83E0981EA11CB11C6D
:10030000C114D104E104F10421F7DECFFF90EF9096
:10031000DF90CF90BF90AF909F908F900895CF9235
:10032000DF92EF92FF920F931F93CF93DF93CDB79E
:10033000DEB7C054D1400FB6F894DEBF0FBECDBFBC
:100340002FB7F89480918E0090918F00A09190002B
:10035000B09191002FBF40919B0050919C00609103
:100360009D0070919E008C019D01041B150B260BB6
:10037000370BB901A801403D57406105710518F4DC
:100380008091A300B1C080939B0090939C00A093A8
:100390009D00B0939E0010929600109295001092CE
:1003A0009400109293001092920061E08091970067
:1003B000EDDE6AEF70E080E090E079DF61E080914F
:1003C000970013DF60E080919700E0DE64E170E069
:1003D00080E090E06CDFF89461E080919700D6DED9
:1003E0008CE490E00197F1F762E080919700FDDEE8
:1003F00080E190E00197F1F780E069DE672B682BE0
:10040000692B21F41092A30078943BC081E05FDE59
:10041000672B682B692BB1F38E010F5F1F4F6E01A5
:100420002FEBC21A2EEFD20A780180E050DEF701DE
:10043000608371838283938381E049DEF701648363
:10044000758386839783F8E0EF0EF11CEC14FD04AE
:1004500061F7789420E030E0F801408151816281B9
:100460007381C480D580E680F78041155105610510
:10047000710529F0C114D104E104F10421F41092B2
:10048000A30080E031C0F90183E0F595E7958A95F6
:10049000E1F7EE56FF4F8081880F4C155D056E0524
:1004A0007F0508F4816080832F5F3F4F085F1F4FF7
:1004B0002832310589F62091960030E04091920073
:1004C0008091930090E0840F911D40919400840FDF
:1004D000911D40919500840F911D99272817390788
:1004E00071F681E08093A300C05CDE4F0FB6F894F4
:1004F000DEBF0FBECDBFDF91CF911F910F91FF9057
:10050000EF90DF90CF90089508950895CF93DF93F3
:10051000ECE6F0E08491E8E5F0E0D491E4E4F0E08A
:10052000C491CC2391F0811120DEEC2FF0E0EE0F8E
:10053000FF1FEA58FF4FA591B491EC91ED2329F0EC
:10054000BC9800001092670002C0BC9A0000DF91C6
:10055000CF9108951F920F920FB60F9211242F93EF
:100560003F938F939F93AF93BF9380918E00909111
:100570008F00A0919000B09191003091890026E009
:10058000230F2D3720F40296A11DB11D05C029E8C7
:10059000230F0396A11DB11D2093890080938E0027
:1005A00090938F00A0939000B093910080918A0067
:1005B00090918B00A0918C00B0918D000196A11DAF
:1005C000B11D80938A0090938B00A0938C00B09310
:1005D0008D00BF91AF919F918F913F912F910F907F
:1005E0000FBE0F901F9018951F920F920FB60F928B
:1005F00011242F933F934F935F936F937F938F9328
:100600009F93AF93BF93EF93FF93E0916200F091BC
:1006100063000995FF91EF91BF91AF919F918F91E9
:100620007F916F915F914F913F912F910F900FBEEE
:100630000F901F9018951F920F920FB60F921124D2
:100640002F933F934F935F936F937F938F939F93DA
:10065000AF93BF93EF93FF93E0916000F09161003F
:100660000995FF91EF91BF91AF919F918F917F91EC
:100670006F915F914F913F912F910F900FBE0F900F
:100680001F9018951F920F920FB60F9211242F935F
:100690008F939F932FB190916700913049F028F08C
:1006A000923049F42093640031C0209366002EC03C
:1006B000209365002BC080916600803249F128F4B8
:1006C000882351F0803171F021C0803409F18035E8
:1006D000F9F08033D9F41CC080916500811118C0F5
:1006E0002FB916C080916500803391F0803481F07D
:1006F000803261F4943031F0953031F0933031F440
:1007000083E205C082E403C089E601C08FEF8FB9A0
:10071000809167008F5F809367009F918F912F91E9
:100720000F900FBE0F901F901895789483B782603A
:1007300083BF83B7816083BF89B7816089BF1EBCD7
:100740008EB582608EBD8EB581608EBD8FB58160A5
:100750008FBD85B5846085BD85B5806485BD329AC1
:10076000319A3098379A1AB862E0809197003DDD4F
:1007700080E398EFAFEFBFEF80939B0090939C00D6
:10078000A0939D00B0939E0060E08DE02EDD60E0C0
:100790008BE02BDDC498BC9880EC8DB91FB862E06B
:1007A00082E023DD86E892E0909361008093600010
:1007B00085B78C7F816085BF8BB780648BBF789451
:1007C000C0E0D0E0ACDD2097E9F31ADCFBCF88E095
:1007D0008093970086E180939800E6E5F0E0E4914D
:1007E000E0939900E2E4F0E0E491E0939A0080E481
:1007F0009FE1A0E0B0E080939F009093A000A093C1
:10080000A100B093A20060E087E0EFDCE5E5F0E056
:10081000E491E0937B00E1E4F0E0E491F0E0EE0F9E
:10082000FF1FEA58FF4F8591949190937D0080932C
:100830007C00109286001092880010928700E6E8F3
:10084000F0E0129280E0EE37F807D9F785E892E001
:1008500090937A00809379008BE790E090936E00FC
:1008600080936D0010926C001092680089E0809374
:10087000690081E080936A0080936B000895EE0F19
:0E088000FF1F0590F491E02D0994F894FFCF2E
:04088E00840284025A
:101C000012C02BC02AC029C028C027C026C025C0AA
:101C100024C023C022C021C020C01FC01EC01DC0C0
:101C20001CC01BC01AC011241FBECFE5D4E0DEBF0C
:101C3000CDBF10E0A0E6B0E0E8EEFFE102C0059005
:101C40000D92A236B107D9F711E0A2E6B0E001C0CB
:101C50001D92AA36B107E1F74FC0D2CFEF92FF92A3
:101C60000F931F93EE24FF24870113C00894E11CF7
:101C7000F11C011D111D81E0E81682E1F8068AE7DA
:101C8000080780E0180728F0E0916200F0916300F7
:101C900009955F9BEBCF8CB1992787FD90951F919C
:101CA0000F91FF90EF9008955D9BFECF8CB9089542
:101CB000D5DF803221F484E1F7DF80E1F5DF08959C
:101CC0001F93182FCBDF803231F484E1EDDF812FB9
:101CD000EBDF80E1E9DF1F9108951F93CF93DF933E
:101CE000182FC0E0D0E002C0B9DF2196C117E0F3A1
:101CF000DF91CF911F910895CFE5D4E0DEBFCDBF36
:101D0000000010BC83E389B988E18AB986E880BD08
:101D1000BD9A1092680130E2E0E0F0E02FE088B375
:101D2000832788BBCF010197F1F7215027FFF7CF19
:101D300020E12093680192DF803381F1813399F4AF
:101D40008DDF8032C1F784E1AFDF81E4ADDF86E56E
:101D5000ABDF82E5A9DF80E2A7DF89E4A5DF83E5C9
:101D6000A3DF80E5C7C0803429F478DF8638B0F07F
:101D700075DF14C0813471F471DF803811F482E0B2
:101D80001DC1813811F481E019C1823809F015C1F3
:101D900082E114C1823421F484E19FDF89DFCBCF5B
:101DA000853411F485E0F9CF8035C1F38135B1F385
:101DB0008235A1F3853539F451DF809364004EDF1D
:101DC00080936500EBCF863519F484E086DFF5C09B
:101DD000843609F093C042DF809367013FDF809330
:101DE0006601809169018E7F8093690137DF8534B8
:101DF00029F480916901816080936901C0E0D0E09D
:101E000006E610E005C02ADFF80181938F012196D4
:101E10008091660190916701C817D907A0F31EDF72
:101E2000803209F088CF8091690180FF1FC020E0D7
:101E300030E0E6E6F0E012C0A0916400B0916500E9
:101E40008191082EC5D08091640090916500019623
:101E500090936500809364002F5F3F4F80916601EF
:101E6000909167012817390738F343C0F894E19936
:101E7000FECF1127E0916400F0916500EE0FFF1F87
:101E8000C6E6D0E0809166019091670180FF01C0B5
:101E90000196103051F422D003E000935700E895EA
:101EA0001DD001E100935700E8950990199016D0D4
:101EB00001E000935700E8951395103258F0112770
:101EC0000DD005E000935700E89508D001E100939C
:101ED0005700E8953296029739F0DBCF0091570012
:101EE00001700130D9F30895103011F00296E7CF58
:101EF000112484E1D9DE80E1D7DE1DCF843709F0DB
:101F00004BC0ACDE80936701A9DE80936601A6DE3C
:101F100090916901853421F49160909369010DC01D
:101F20009E7F909369018091640090916500880F75
:101F3000991F909365008093640090DE803209F0D1
:101F4000FACE84E1B1DEC0E0D0E01EC0809169012C
:101F500080FF07C0A0916400B091650031D0802D52
:101F600008C081FD07C0E0916400F0916500E49134
:101F70008E2F9ADE80916400909165000196909377
:101F800065008093640021968091660190916701BD
:101F9000C817D907D8F2AFCF853761F45FDE80323A
:101FA00009F0C9CE84E180DE8EE17EDE83E97CDE4D
:101FB00087E0A0CF863709F0BECE80E081DEBBCEC1
:101FC000E199FECFBFBBAEBBE09A11960DB208956A
:101FD000E199FECFBFBBAEBB0DBA11960FB6F89418
:081FE000E29AE19A0FBE089598
:021FE800800077
:0400000300001C00DD
:00000001FF
