:10000000C0C020C5F8C4E2C0E1C0E0C0DFC0DEC0AF
:10001000DDC0A7C43EC5DAC0D9C0D8C0D7C0D6C0DD
:10002000D5C0D4C0D3C00000000037003400310078
:100030000000000038003500320004040404040409
:100040000404020202020202030303030303010287
:100050000408102040800102040810200102040856
:100060001020000000000000000000030406000053
:10007000000000000000005EBCE2613FDD83C29C26
:100080007E20A3FD1F419DC3217FFCA2401E5F0176
:10009000E3BD3E6082DC237D9FC1421CFEA0E1BF28
:1000A0005D0380DE3C62BEE0025CDF81633D7C225A
:1000B000C09E1D43A1FF4618FAA427799BC584DA88
:1000C0003866E5BB5907DB856739BAE40658194736
:1000D000A5FB7826C49A653BD987045AB8E6A7F9E8
:1000E0001B45C6987A24F8A6441A99C7257B3A641A
:1000F00086D85B05E7B98CD2306EEDB3510F4E1048
:10010000F2AC2F7193CD114FADF3702ECC92D38DF5
:100110006F31B2EC0E50AFF1134DCE90722C6D33A7
:10012000D18F0C52B0EE326C8ED0530DEFB1F0AED9
:100130004C1291CF2D73CA947628ABF51749085607
:10014000B4EA6937D58B5709EBB536688AD495CBB5
:100150002977F4AA4816E9B7550B88D6346A2B7567
:1001600097C94A14F6A8742AC896154BA9F7B6E899
:100170000A54D7896B350000000036003300300088
:10018000DF0B11241FBECFE5D4E0DEBFCDBF10E0F2
:10019000A0E6B0E0E6EDFAE102C005900D92AA36C5
:1001A000B107D9F720E0AAE6B0E001C01D92A13F57
:1001B000B207E1F710E0C1ECD0E003C02197FE01E7
:1001C00091DBC03CD107D1F70FD983CC19CF8F92E7
:1001D0009F92AF92BF92CF92DF92EF92FF92CF9316
:1001E000DF93A091D300882311F03A2F01C030E0B3
:1001F0008091D40090E0880F991F8A589E4FC0903C
:10020000D900D090DA00E090DB00F090DC0040E014
:1002100050E0BA01FC01C591D49128812A2323130F
:100220000FC04A015B012FEF821A920AA20AB20A9A
:100230004C155D056E057F0538F4B501A401EACFC4
:10024000342F252FCB0104C030E020E080E090E087
:10025000632F722FDF91CF91FF90EF90DF90CF90BF
:10026000BF90AF909F908F900895843039F0863082
:1002700049F0833051F48FB58F7702C08FB58F7DF1
:100280008FBD089585B58F7D85BD08951F93CF934C
:10029000DF93282F30E0F901EE59FF4F8491F901E7
:1002A000E25BFF4FD491F901E65CFF4FC491CC2390
:1002B000C1F0162F8111D9DFEC2FF0E0EE0FFF1FF8
:1002C000E05DFF4FA591B4918FB7F894111105C06F
:1002D0009C91ED2FE095E92302C0EC91ED2BEC937E
:1002E0008FBFDF91CF911F910895CF93DF9390E05F
:1002F000FC01E25BFF4F2491FC01E65CFF4F84911F
:10030000882361F190E0880F991FFC01EA5DFF4F9F
:10031000C591D491FC01E05DFF4FA591B4916111AD
:1003200009C09FB7F8948881209582238883EC9137
:100330002E230BC0623061F49FB7F8943881822F6E
:10034000809583238883EC912E2B2C939FBF06C02E
:100350008FB7F894E8812E2B28838FBFDF91CF9140
:1003600008953FB7F8948091890090918A00A091F8
:100370008B00B0918C0022B708B600FE05C02F3F5D
:1003800019F00196A11DB11D3FBFBA2FA92F982FBB
:100390008827820F911DA11DB11DBC01CD0143E035
:1003A000660F771F881F991F4A95D1F708958F927E
:1003B0009F92AF92BF92CF92DF92EF92FF926B012A
:1003C0007C01CFDF4B015C01C114D104E104F104D5
:1003D000E9F0C7DFDC01CB0188199909AA09BB093B
:1003E000883E9340A105B10578F321E0C21AD108F7
:1003F000E108F10888EE880E83E0981EA11CB11C6C
:10040000C114D104E104F10421F7DECFFF90EF9095
:10041000DF90CF90BF90AF909F908F900895CF9234
:10042000DF92EF92FF920F931F93CF93DF93CDB79D
:10043000DEB7C054D1400FB6F894DEBF0FBECDBFBB
:100440002FB7F8948091C8009091C900A091CA007C
:10045000B091CB002FBF4091D5005091D600609154
:10046000D7007091D8008C019D01041B150B260B41
:10047000370BB901A801403D57406105710518F4DB
:100480008091DD00B1C08093D5009093D600A093F9
:10049000D700B093D8001092D0001092CF001092E5
:1004A000CE001092CD001092CC0061E08091D1007E
:1004B000EDDE6AEF70E080E090E079DF61E080914E
:1004C000D10013DF60E08091D100E0DE64E170E0F4
:1004D00080E090E06CDFF89461E08091D100D6DE9E
:1004E0008CE490E00197F1F762E08091D100FDDEAD
:1004F00080E190E00197F1F780E069DE672B682BDF
:10050000692B21F41092DD0078943BC081E05FDE1E
:10051000672B682B692BB1F38E010F5F1F4F6E01A4
:100520002FEBC21A2EEFD20A780180E050DEF701DD
:10053000608371838283938381E049DEF701648362
:10054000758386839783F8E0EF0EF11CEC14FD04AD
:1005500061F7789420E030E0F801408151816281B8
:100560007381C480D580E680F7804115510561050F
:10057000710529F0C114D104E104F10421F41092B1
:10058000DD0080E031C0F90183E0F595E7958A95BB
:10059000E1F7E453FF4F8081880F4C155D056E0530
:1005A0007F0508F4816080832F5F3F4F085F1F4FF6
:1005B0002832310589F62091D00030E04091CC00FE
:1005C0008091CD0090E0840F911D4091CE00840F6A
:1005D000911D4091CF00840F911D9927281739074D
:1005E00071F681E08093DD00C05CDE4F0FB6F894B9
:1005F000DEBF0FBECDBFDF91CF911F910F91FF9056
:10060000EF90DF90CF90089508950895FC019081B8
:100610000180F281E02DF8948181892B81832281F0
:10062000892F809528232283A2E0B0E01197F1F76B
:10063000218182238183A0E1B0E01197F1F78081CD
:100640007894E6E6F0E03197F1F7982381E009F439
:1006500080E00895FC0190810180F281E02D892FD6
:10066000809560FF12C0F894228182238283818169
:10067000892B8183A0E1B0E01197F1F78281982B5B
:10068000928378948AE690E011C0F89422818223C4
:1006900082838181892B8183AEE7B0E01197F1F7E6
:1006A0008281982B9283789486E090E00197F1F70D
:1006B0000895CF92DF92EF92FF920F931F93CF9303
:1006C000DF931F92CDB7DEB76C01E62E08E010E095
:1006D000FF24F39461E08F2D8E2109F460E0C601C0
:1006E0004983B8DFFF0C015011094981011511053B
:1006F00089F7411115C0F894D6011196ED91FC913E
:10070000129791818C918095892381831196ED9127
:10071000FC91129792818C918095892382837894A1
:100720000F90DF91CF911F910F91FF90EF90DF908D
:10073000CF900895CF92DF92EF92FF920F931F9385
:10074000CF93DF931F92CDB7DEB78C01F62E40E03A
:1007500065E57983AEDFCF2C7981D72E760188E0ED
:10076000E80EF11CF60161916F0140E0C801A1DFC4
:10077000CE14DF04B9F70F90DF91CF911F910F9145
:10078000FF90EF90DF90CF900895CF93DF93ECE64A
:10079000F0E08491E8E5F0E0D491E4E4F0E0C49185
:1007A000CC2391F0811161DDEC2FF0E0EE0FFF1F03
:1007B000EA58FE4FA591B491EC91ED2329F0BC9835
:1007C00000001092790002C0BC9A0000DF91CF9126
:1007D0000895FC0190810180F281E02DF8948181DF
:1007E000292F20958223818378948DE7815009F108
:1007F00030813923D9F3F8948281822382838181E5
:10080000892B81837894ACEBB3E01197F1F7F894DE
:10081000818128232183A8E8B0E01197F1F7808136
:10082000982381E009F080E07894E0E3F3E03197E9
:10083000F1F70895AF92BF92CF92DF92EF92FF92BD
:100840000F931F93CF93DF938B01BC018091E30043
:100850009091E4006FDF40E06EEB8091E3009091B7
:10086000E40027DFE801680189E0C80ED11CA090F0
:10087000E300B090E40088E0E82EF12C01E010E005
:10088000C501C4DE8111102B000F81E0E81AF108C8
:10089000B9F71993CC15DD0551F78091E3009091DC
:1008A000E40097DF91E0813009F090E0892FDF913B
:1008B000CF911F910F91FF90EF90DF90CF90BF905D
:1008C000AF9008950F931F93CF93DF93CDB7DEB70B
:1008D00029970FB6F894DEBF0FBECDBFFC01208173
:1008E000203199F18C018091E3009091E40071DF57
:1008F000882349F1BE016F5F7F4FC8019BDF8823CA
:1009000011F1DE011196E0E088E08A0F8A1739F0D4
:100910009D91E927F0E0EA58FF4FE491F7CF8985F0
:10092000E81311C08D818F3361F020F48F3159F4B9
:1009300089E00CC08F3519F08F3739F004C08BE097
:1009400005C08AE003C080E001C08CE029960FB6A4
:10095000F894DEBF0FBECDBFDF91CF911F910F91F5
:1009600008951F920F920FB60F9211242F933F9369
:100970008F939F93AF93BF938091C8009091C900CC
:10098000A091CA00B091CB003091880026E0230FDF
:100990002D3720F40296A11DB11D05C029E8230FB3
:1009A0000396A11DB11D209388008093C8009093E9
:1009B000C900A093CA00B093CB00809189009091A8
:1009C0008A00A0918B00B0918C000196A11DB11DF1
:1009D0008093890090938A00A0938B00B0938C0041
:1009E000BF91AF919F918F913F912F910F900FBE2B
:1009F0000F901F9018951F920F920FB60F9211240F
:100A00002F933F934F935F936F937F938F939F9316
:100A1000AF93BF93EF93FF93E0916200F091630077
:100A20000995FF91EF91BF91AF919F918F917F9128
:100A30006F915F914F913F912F910F900FBE0F904B
:100A40001F9018951F920F920FB60F9211242F939B
:100A50003F934F935F936F937F938F939F93AF9346
:100A6000BF93EF93FF93E0916000F09161000995CF
:100A7000FF91EF91BF91AF919F918F917F916F9176
:100A80005F914F913F912F910F900FBE0F901F904C
:100A900018951F920F920FB60F921124CF92DF92EA
:100AA000EF92FF922F933F934F935F936F937F93B8
:100AB0008F939F93AF93BF93EF93FF932FB1809149
:100AC0007900813059F030F0823061F42093760063
:100AD0006FEF6FC4209378006FEF6BC420937700A3
:100AE0006FEF67C490917800903209F4D2C028F477
:100AF000992369F0903189F0EDC3903409F48DC3E6
:100B0000903509F4C3C3903309F0E4C375C28091F2
:100B100077008111E1C3622F4CC46091770060318E
:100B200079F018F4662339F0D9C36032B1F060333C
:100B300009F490C0D3C3833009F43BC46FEF39C4C8
:100B4000843039F0853039F0833009F4C9C36FEF50
:100B500030C462E42EC469E62CC4843009F43FC07A
:100B600000F5833009F0BEC32FB7F8946091C80038
:100B70007091C9008091CA009091CB002FBF609303
:100B8000720070937300809374009093750028E155
:100B900030E040E050E07AD6622F6795662767958F
:100BA00008C48530D1F1863009F09CC36091720091
:100BB0007091730080917400909175002CE330E087
:100BC00040E050E063D69B01AC01A8EEB3E080D6D4
:100BD00028EE33E040E050E059D6622FEAC360913E
:100BE000720070917300809174009091750028E1FB
:100BF00030E040E050E04AD69B01AC0160E87EEE78
:100C000086E390E034D62CE330E040E050E03ED67E
:100C100060E6269F602D1124CCC360917200709114
:100C2000730080917400909175002CE3C22ED12C3A
:100C3000E12CF12CA701960129D69B01AC01A0E67D
:100C4000BAEE46D6A701960121D668EE269F602D02
:100C50001124AFC3833019F0843049F045C381E0DB
:100C60002D3409F080E0809371006FEFA2C3809172
:100C70007100882309F43AC3233509F039C39CE095
:100C800088E10FB6F894A89581BD0FBE91BD6FEFB6
:100C900090C390917700953009F4ECC088F49230BD
:100CA00009F470C030F49923E9F0913009F442C09E
:100CB00021C3933009F48EC0943009F4B3C01AC331
:100CC000903209F44FC138F4903109F4FBC09131EE
:100CD00009F420C10FC3903309F455C1903409F4CD
:100CE0007AC108C38330A1F0843009F005C31092A3
:100CF0006C0020E030E048EC52E460916D007091AF
:100D00006E0080916F009091700058D6FDD551C350
:100D100060918D0070918E0080918F009091900075
:100D200060936D0070936E0080936F0090937000DD
:100D3000EBD53FC38330A1F0843009F0DFC21092BD
:100D40006C0020E030E048EC52E460916D0070915E
:100D50006E0080916F009091700030D6D5D529C378
:100D60006091910070919200809193009091940015
:100D700060936D0070936E0080936F00909370008D
:100D8000C3D517C38330A1F0843009F0B9C21092E3
:100D90006C0020E030E048EC52E460916D0070910E
:100DA0006E0080916F009091700008D6ADD501C3A0
:100DB00060919500709196008091970090919800B5
:100DC00060936D0070936E0080936F00909370003D
:100DD0009BD5EFC28330A1F0843009F093C210920A
:100DE0006C0020E030E048EC52E460916D007091BE
:100DF0006E0080916F0090917000E0D585D5D9C2CA
:100E00006091990070919A0080919B0090919C0054
:100E100060936D0070936E0080936F0090937000EC
:100E200073D5C7C28330A1F0843009F06DC210922F
:100E30006C0020E030E048EC52E460916D0070916D
:100E40006E0080916F0090917000B8D55DD5B1C2F1
:100E500060919D0070919E0080919F009091A000F4
:100E600060936D0070936E0080936F00909370009C
:100E70004BD59FC28330A1F0843009F047C2109255
:100E80006C0020E030E048EC52E460916D0070911D
:100E90006E0080916F009091700090D535D589C219
:100EA0006091A1007091A2008091A3009091A40094
:100EB00060936D0070936E0080936F00909370004C
:100EC00023D577C28330A1F0843009F021C210927B
:100ED0006C0020E030E048EC52E460916D007091CD
:100EE0006E0080916F009091700068D50DD561C241
:100EF0006091A5007091A6008091A7009091A80034
:100F000060936D0070936E0080936F0090937000FB
:100F1000FBD44FC28330A1F0843009F0FBC11092A2
:100F20006C0020E030E048EC52E460916D0070917C
:100F30006E0080916F009091700040D5E5D439C269
:100F40006091A9007091AA008091AB009091AC00D3
:100F500060936D0070936E0080936F0090937000AB
:100F6000D3D427C2833031F0843009F0D5C16091E9
:100F70006A001FC28091AD006091AE0080936A004C
:100F800060936B0016C28330A1F0843009F0C6C1B3
:100F900010926C0020E030E048EC52E460916D006B
:100FA00070916E0080916F009091700007D5ACD465
:100FB00000C26091AF007091B0008091B10090913B
:100FC000B20060936D0070936E0080936F009093F9
:100FD00070009AD4EEC1833031F0843009F0A0C1A2
:100FE00060916A00E6C18091B3006091B400809383
:100FF0006A0060936B00DDC190917700923209F432
:10100000BEC040F5903109F493C090F4923009F4D9
:1010100056C038F4992309F445C0913009F448C00A
:1010200081C1933009F45CC0943009F470C07AC176
:10103000933109F490C038F4913109F47FC09231B2
:1010400009F483C06FC1903209F48CC0913209F465
:101050008FC068C1903409F4B9C090F4913309F499
:10106000A1C038F4933209F490C0903309F494C0CD
:1010700059C1923309F49DC0933309F4A0C052C101
:10108000913509F4B6C038F4913409F4A5C090350F
:1010900009F4A9C047C1903609F4B2C0913609F4E9
:1010A000B5C040C1833009F03FC16091B50081C136
:1010B000833009F03BC12093B5006FEF7AC18330D4
:1010C00031F0843009F034C160916A0072C18091BE
:1010D000B6006091B70080936A0060936B0069C1AD
:1010E000833079F0843009F025C18091B600909169
:1010F000B700820F911D9093B7008093B6006FEFF9
:1011000058C11092B6002093B7006FEF52C18330E0
:1011100031F0843009F010C160916A004AC18091B9
:10112000B8006091B90080936A0060936B0041C180
:10113000833009F003C16091BA003BC1833009F0EC
:10114000FFC02093BA006FEF34C1833009F0FAC0BA
:101150006091BB002EC1833009F0F6C02093BB0024
:101160006FEF27C1833009F0F1C06091BC0021C14D
:10117000833009F0EDC02093BC006FEF1AC18330BB
:1011800009F0E8C06091BD0014C1833009F0E4C0EB
:101190002093BD006FEF0DC1833009F0DFC0609177
:1011A000BE0007C1833009F0DBC02093BE006FEFA3
:1011B00000C1833009F0D6C06091BF00FAC083300F
:1011C00009F0D2C02093BF006FEFF3C0833009F065
:1011D000CDC06091C000EDC0833009F0C9C020933C
:1011E000C0006FEFE6C0833009F0C4C06091C10059
:1011F000E0C0833009F0C0C02093C1006FEFD9C0B8
:10120000833009F0BBC06091C200D3C0833009F0C5
:10121000B7C02093C2006FEFCCC09091770090319F
:10122000D9F028F4992359F0913079F0ABC090327D
:1012300001F1913221F1913109F0A4C013C0833042
:1012400009F0A2C06091C300B4C0833009F09EC011
:101250002093C3006FEFADC0833009F099C0609157
:10126000C400A7C0833009F095C02093C4006FEF7D
:10127000A0C0833009F090C06091C5009AC083304F
:1012800009F08CC02093C5006FEF93C09091770058
:10129000913061F028F0903181F09131A1F080C05F
:1012A000833009F07FC06091C60083C0833009F0AD
:1012B0007BC02093C6006FEF7CC0833009F076C0FE
:1012C0006091C70076C0833009F072C02093C700D8
:1012D0006FEF6FC06FEF6DC06FEF6BC06FEF69C0E6
:1012E00063E267C06FEF65C06FEF63C06FEF61C00F
:1012F0006FEF5FC06FEF5DC06FEF5BC06FEF59C006
:101300006FEF57C06FEF55C06FEF53C06FEF51C015
:101310006FEF4FC06FEF4DC06FEF4BC06FEF49C025
:101320006FEF47C06FEF45C06FEF43C06FEF41C035
:101330006FEF3FC06FEF3DC06FEF3BC06FEF39C045
:101340006FEF37C06FEF35C06FEF33C06FEF31C055
:101350006FEF2FC06FEF2DC06FEF2BC06FEF29C065
:101360006FEF27C06FEF25C06FEF23C06FEF21C075
:101370006FEF1FC06FEF1DC06FEF1BC06FEF19C085
:101380006FEF17C06FEF15C06FEF13C06FEF11C095
:101390006FEF0FC06FEF0DC06FEF0BC06FEF09C0A5
:1013A0006FEF07C06FEF05C06FEF03C06FEF01C0B5
:1013B0006FEF6FB9809179008F5F80937900FF9113
:1013C000EF91BF91AF919F918F917F916F915F91BD
:1013D0004F913F912F91FF90EF90DF90CF900F9022
:1013E0000FBE0F901F901895CF93DF93CDB7DEB748
:1013F00062970FB6F894DEBF0FBECDBF789483B767
:10140000826083BF83B7816083BF89B7816089BFF2
:101410001EBC8EB582608EBD8EB581608EBD8FB5CF
:1014200081608FBD85B5846085BD85B5806485BDCF
:10143000329A319A3098379A1AB883EC95EFA8E42B
:10144000B0E480938D0090938E00A0938F00B093B2
:1014500090008093910090939200A0939300B0939A
:1014600094008093950090939600A0939700B0937A
:1014700098008093990090939A00A0939B00B0935A
:101480009C0080939D0090939E00A0939F00B0933A
:10149000A0008093A1009093A200A093A300B0931A
:1014A000A4008093A5009093A600A093A700B093FA
:1014B000A8008093A9009093AA00A093AB00B093DA
:1014C000AC0027EB3AE73093AE002093AD00809359
:1014D000AF009093B000A093B100B093B2003093EE
:1014E000B4002093B30082E38093B5001092B7005C
:1014F0001092B60087E190E09093B9008093B80015
:101500001092BA008AE28093BB001092BC008093D4
:10151000BD001092BE008093BF001092C0001092D8
:10152000C1001092C2001092C3001092C400109229
:10153000C5001092C6001092C70062E08091D100F1
:10154000D4D680E398EFAFEFBFEF8093D5009093B0
:10155000D600A093D700B093D800E091E300F091BB
:10156000E400138615861486DF011B9633961E92BF
:10157000AE17BF07E1F71092E200BB24B394AA2490
:10158000A3947E018AE0E80EF11C6E01E2E1CE0E2A
:10159000D11C97E0992E9E0C0091E3001091E4007D
:1015A000F8018585811158C0C80113D9882309F431
:1015B00053C040E060EFC8017CD877247394612C5D
:1015C000512C88248394C80121D8682FC8016A8BC4
:1015D0001DD86A89613019F48130C1F434C0262DD8
:1015E00030E068131CC0F8018385881630F4E20FE0
:1015F000F31F8381872151F402C0881639F060E01F
:10160000F8E0F81558F0F801848608C0F801E60DF6
:10161000F11D83818729838361E009C0582CF8017B
:10162000E20FF31F9381872D809589238383C8015F
:1016300011D88394770C19F4639477247394F7E0AA
:10164000F61508F0C0CF80E4881530F4F801538611
:10165000511056C0B58654C0F801138615861486FD
:1016600060E08DE042D660E08BE03FD6C498BC9845
:1016700080EC8DB91FB862E082E037D685EC93E04C
:10168000909361008093600085B78C7F816085BFF7
:101690008BB780648BBF789400E010E0C0D6809157
:1016A000E3009091E40095D840E06CEC8091E30079
:1016B0009091E400FED74091DE0064E48091E30065
:1016C0009091E400F6D78091E0008823A1F0E091AA
:1016D000DF00E950E33040F4F0E0EE0FFF1FEC597B
:1016E000FF4F6081718102C06EEE72E0072E000C28
:1016F000880B990B5CD60115110581F281D4CECFF0
:10170000F8018381882309F4A7CF3396D70181910B
:101710008D93AC15BD05D9F7D701E0E09A1639F0E5
:101720008D91E827F0E0EA58FF4FE491F7CF8989DF
:10173000E81332CF8091DE0081111FC08091E30059
:101740009091E40046D8B7018091E3009091E400C5
:10175000F1D740E064EB8091E3009091E400A9D7D9
:101760008091E3009091E40051D7182F8091E3001D
:101770009091E4002ED81123F9F08091E30090912C
:10178000E40027D8882329F0BE016F5F7F4FC7018F
:1017900051D81091DF00C70195D8811718F48091B6
:1017A000DF0002C0C7018ED88093DF008091E20085
:1017B0008F5F8093E200F0CEA092DE00DECF88E063
:1017C0008093D10086E18093D200E6E5F0E0E491D9
:1017D000E093D300E2E4F0E0E491E093D40080E40D
:1017E0009FE1A0E0B0E08093D9009093DA00A0934D
:1017F000DB00B093DC0060E087E077D5E5E5F0E062
:10180000E491E0937A00E1E4F0E0E491F0E0EE0F9F
:10181000FF1FEA58FE4F8591949190937C0080932E
:101820007B00109285001092870010928600E5E8F8
:10183000F0E0129280E0ED37F807D9F785E093E009
:101840009093F0008093EF008AE790E09093E4009B
:101850008093E3001092E2001092DE0089E0809312
:10186000DF0081E08093E0008093E1000895DB01D8
:101870008F939F932DD0BF91AF91A29F800D911D0B
:10188000A39F900DB29F900D11240895A1E21A2EEE
:10189000AA1BBB1BFD010DC0AA1FBB1FEE1FFF1F14
:1018A000A217B307E407F50720F0A21BB30BE40B64
:1018B000F50B661F771F881F991F1A9469F76095AB
:1018C0007095809590959B01AC01BD01CF01089565
:1018D0000FD0A59F900DB49F900DA49F800D911DDA
:1018E00011240895EE0FFF1F0590F491E02D099447
:1018F000A29FB001B39FC001A39F01D0B29F700D02
:10190000811D1124911D089504D06894B11150C017
:10191000089533D088F09F5790F0B92F9927B75189
:10192000A0F0D1F0660F771F881F991F1AF0BA95A3
:10193000C9F712C0B13081F03AD0B1E0089537C094
:10194000672F782F8827B85F39F0B93FCCF3869599
:1019500077956795B395D9F73EF4909580957095F6
:1019600061957F4F8F4F9F4F089557FD9058440FBB
:10197000551F59F05F3F71F04795880F97FB991FEE
:1019800061F09F3F79F087950895121613061406AB
:10199000551FF2CF4695F1DF08C016161706180638
:1019A000991FF1CF86957105610508940895E89413
:1019B000BB2766277727CB0197F908950BD078C00E
:1019C00069D028F06ED018F0952309F05AC05FC096
:1019D0001124EECFCADFA0F3959FD1F3950F50E00D
:1019E000551F629FF001729FBB27F00DB11D639FD1
:1019F000AA27F00DB11DAA1F649F6627B00DA11D77
:101A0000661F829F2227B00DA11D621F739FB00D1C
:101A1000A11D621F839FA00D611D221F749F33278C
:101A2000A00D611D231F849F600D211D822F762F25
:101A30006A2F11249F5750408AF0E1F088234AF022
:101A4000EE0FFF1FBB1F661F771F881F915050406E
:101A5000A9F79E3F510570F014C0AACF5F3FECF389
:101A6000983EDCF3869577956795B795F795E7955A
:101A70009F5FC1F7FE2B880F911D9695879597F96B
:101A8000089597F99F6780E870E060E008959FEF00
:101A900080EC089500240A94161617061806090605
:101AA000089500240A9412161306140605060895D4
:101AB000092E0394000C11F4882352F0BB0F40F45C
:101AC000BF2B11F460FF04C06F5F7F4F8F4F9F4F9C
:061AD0000895F894FFCF19
:0A1AD600040304035E00BC00770166
:00000001FF
