:10000000C0C034C30CC3E2C0E1C0E0C0DFC0DEC08A
:10001000DDC0BBC252C3DAC0D9C0D8C0D7C0D6C0B9
:10002000D5C0D4C0D3C00000000000000000000311
:100030000406000000000000000000000000360080
:1000400033003000000000003800350032000000AE
:1000500000003700340031000404040404040404E4
:100060000202020202020303030303030102040863
:100070001020408001020408102001020408102012
:10008000005EBCE2613FDD83C29C7E20A3FD1F4178
:100090009DC3217FFCA2401E5F01E3BD3E6082DC68
:1000A000237D9FC1421CFEA0E1BF5D0380DE3C6258
:1000B000BEE0025CDF81633D7C22C09E1D43A1FF48
:1000C0004618FAA427799BC584DA3866E5BB590738
:1000D000DB856739BAE406581947A5FB7826C49A28
:1000E000653BD987045AB8E6A7F91B45C6987A2418
:1000F000F8A6441A99C7257B3A6486D85B05E7B908
:100100008CD2306EEDB3510F4E10F2AC2F7193CDF7
:10011000114FADF3702ECC92D38D6F31B2EC0E50E7
:10012000AFF1134DCE90722C6D33D18F0C52B0EED7
:10013000326C8ED0530DEFB1F0AE4C1291CF2D73C7
:10014000CA947628ABF517490856B4EA6937D58BB7
:100150005709EBB536688AD495CB2977F4AA4816A7
:10016000E9B7550B88D6346A2B7597C94A14F6A897
:10017000742AC896154BA9F7B6E80A54D7896B3587
:10018000290A11241FBECFE5D4E0DEBFCDBF10E0A9
:10019000A0E6B0E0E0E2F8E102C005900D92A436DE
:1001A000B107D9F720E0A4E6B0E001C01D92AB3E54
:1001B000B207E1F710E0C1ECD0E003C02197FE01E7
:1001C000A0D9C03CD107D1F758D728CB19CFCF93AE
:1001D000DF9390E0FC01E459FF4F2491FC01E85AC1
:1001E000FF4F8491882361F190E0880F991FFC01F3
:1001F000E25BFF4FC591D491FC01EC5BFF4FA591F1
:10020000B491611109C09FB7F89488812095822329
:100210008883EC912E230BC0623061F49FB7F89471
:100220003881822F809583238883EC912E2B2C9309
:100230009FBF06C08FB7F894E8812E2B28838FBF0D
:10024000DF91CF91089508950895FC019081018078
:10025000F281E02DF8948181892B81832281892F7D
:10026000809528232283A2E0B0E01197F1F7218145
:1002700082238183A0E1B0E01197F1F78081789427
:10028000E6E6F0E03197F1F7982381E009F480E0A9
:100290000895FC0190810180F281E02D892F8095E5
:1002A00060FF12C0F8942281822382838181892B8E
:1002B0008183A0E1B0E01197F1F78281982B9283BE
:1002C00078948AE690E011C0F89422818223828398
:1002D0008181892B8183AEE7B0E01197F1F78281AC
:1002E000982B9283789486E090E00197F1F7089537
:1002F000EF92FF920F931F93CF93DF93EC01E62EC3
:1003000008E010E0FF24F39461E08F2D8E2109F4C2
:1003100060E0CE01BEDFFF0C01501109A9F7F8948F
:10032000E981FA8191818881809589238183E9819E
:10033000FA81928188818095892382837894DF91E4
:10034000CF911F910F91FF90EF900895CF92DF9280
:10035000EF92FF920F931F93CF93DF931F92CDB72E
:10036000DEB78C01F62E65E57983C2DFCF2C79816B
:10037000D72E760188E0E80EF11CF60161916F013D
:10038000C801B6DFCE14DF04C1F70F90DF91CF9123
:100390001F910F91FF90EF90DF90CF900895E0E3D1
:1003A000F0E08491E6E7F0E09491E2E6F0E0E49199
:1003B000EE2309F1882381F0843039F0863049F04A
:1003C000833051F48FB58F7702C08FB58F7D8FBD8D
:1003D00003C085B58F7D85BDF0E0EE0FFF1FE65CA5
:1003E000FF4FA591B491EC91E92329F0BC9800004E
:1003F000109273000895BC9A00000895FC0190814A
:100400000180F281E02DF8948181292F20958223AB
:10041000818378948DE7815009F130813923D9F3B4
:10042000F8948281822382838181892B81837894CD
:10043000ACEBB3E01197F1F7F89481812823218385
:10044000A8E8B0E01197F1F78081982381E009F0E6
:1004500080E07894E0E3F3E03197F1F70895AF920C
:10046000BF92CF92DF92EF92FF920F931F93CF93A1
:10047000DF938B01BC018091DD009091DE0066DF8F
:100480006EEB8091DD009091DE0032DFE8016801C3
:1004900089E0C80ED11CA090DD00B090DE0088E09D
:1004A000E82EF12C01E010E0C501CFDE8111102B08
:1004B000000F81E0E81AF108B9F71993CC15DD05B2
:1004C00051F78091DD009091DE0098DF91E081305E
:1004D00009F090E0892FDF91CF911F910F91FF904C
:1004E000EF90DF90CF90BF90AF9008950F931F9340
:1004F000CF93DF93CDB7DEB729970FB6F894DEBF61
:100500000FBECDBFFC012081203199F18C0180917B
:10051000DD009091DE0072DF882349F1BE016F5F3C
:100520007F4FC8019CDF882311F1DE011196E0E0C6
:1005300088E08A0F8A1739F09D91E927F0E0E058AA
:10054000FF4FE491F7CF8985E81311C08D818F3378
:1005500061F020F48F3159F489E00CC08F3519F027
:100560008F3739F004C08BE005C08AE003C080E01B
:1005700001C08CE029960FB6F894DEBF0FBECDBF48
:10058000DF91CF911F910F9108951F920F920FB697
:100590000F9211242F933F938F939F93AF93BF9309
:1005A0008091870090918800A0918900B0918A0085
:1005B0003091860026E0230F2D3720F40296A11DEE
:1005C000B11D05C029E8230F0396A11DB11D20937D
:1005D00086008093870090938800A0938900B09351
:1005E0008A008091820090918300A0918400B09154
:1005F00085000196A11DB11D809382009093830018
:10060000A0938400B0938500BF91AF919F918F918B
:100610003F912F910F900FBE0F901F9018951F9232
:100620000F920FB60F9211242F933F934F935F9326
:100630006F937F938F939F93AF93BF93EF93FF93AA
:10064000E0916200F09163000995FF91EF91BF91F5
:10065000AF919F918F917F916F915F914F913F915A
:100660002F910F900FBE0F901F9018951F920F9211
:100670000FB60F9211242F933F934F935F936F9375
:100680007F938F939F93AF93BF93EF93FF93E091EB
:100690006000F09161000995FF91EF91BF91AF91DA
:1006A0009F918F917F916F915F914F913F912F918A
:1006B0000F900FBE0F901F9018951F920F920FB6BC
:1006C0000F921124CF92DF92EF92FF922F933F93DC
:1006D0004F935F936F937F938F939F93AF93BF934A
:1006E000EF93FF932FB180917300813059F030F078
:1006F000823061F4209370006FEFA4C420937200E5
:100700006FEFA0C4209371006FEF9CC490917200B2
:10071000903209F480C028F4992369F0903189F06F
:1007200022C4903409F4C2C3903509F4F8C390335D
:1007300009F019C4AAC280917100811116C4622FF8
:1007400081C460917100603171F018F4662331F05A
:100750000EC46032A9F06033E1F109C4833009F4BA
:1007600071C46FEF6FC4843039F0853039F0833055
:1007700009F4FFC36FEF66C462E464C469E662C44F
:10078000843009F1C0F4833009F0F5C32FB7F89431
:100790008091870090918800A0918900B0918A0093
:1007A0002FBF80936C0090936D00A0936E00B09368
:1007B0006F006B2F47C4853049F0863009F0DBC3EA
:1007C00060916C003FC460916E003CC460916D000C
:1007D00039C4833019F0843061F0CFC32D3429F44B
:1007E00081E080936B0060E02DC410926B006FEF8E
:1007F00029C480916B00882309F4C1C3233509F013
:10080000C0C39CE088E10FB6F894A89581BD0FBEE7
:1008100091BD60E017C490917100953009F437C123
:1008200088F4923009F48EC030F49923E9F09130C5
:1008300009F451C0A8C3933009F4BBC0943009F443
:10084000EFC0A1C3903209F4C7C138F4903109F464
:1008500055C1913109F489C196C3903309F4CDC1D2
:10086000903409F401C28FC3833019F1843009F048
:100870008CC3C0906700D0906800E0906900F09051
:100880006A00C701B601A8D660936600CB0199271C
:10089000BC01990F880B990BD2D69B01AC01C70103
:1008A000B60135D620E030E048EC52E454D794D677
:1008B000C9C360918B0070918C0080918D009091E4
:1008C0008E00609367007093680080936900909336
:1008D0006A0082D6B7C3833019F1843009F057C358
:1008E000C0906700D0906800E0906900F0906A00C6
:1008F000C701B60171D660936600CB019927BC0190
:10090000990F880B990B9BD69B01AC01C701B601CF
:10091000FED520E030E048EC52E41DD75DD692C30E
:1009200060918F0070919000809191009091920061
:1009300060936700709368008093690090936A00E9
:100940004BD680C3833019F1843009F022C3C090A4
:100950006700D0906800E0906900F0906A00C701DD
:10096000B6013AD660936600CB019927BC01990F76
:10097000880B990B64D69B01AC01C701B601C7D5A2
:1009800020E030E048EC52E4E6D626D65BC3609126
:1009900093007091940080919500909196006093DF
:1009A0006700709368008093690090936A0014D682
:1009B00049C3833019F1843009F0EDC2C09067005B
:1009C000D0906800E0906900F0906A00C701B6011D
:1009D00003D660936600CB019927BC01990F880B61
:1009E000990B2DD69B01AC01C701B60190D520E033
:1009F00030E048EC52E4AFD6EFD524C360919700C5
:100A0000709198008091990090919A00609367008E
:100A1000709368008093690090936A00DDD512C3DB
:100A2000833019F1843009F0B8C2C0906700D090CB
:100A30006800E0906900F0906A00C701B601CCD56B
:100A400060936600CB019927BC01990F880B990B25
:100A5000F6D59B01AC01C701B60159D520E030E0C5
:100A600048EC52E478D6B8D5EDC260919B00709105
:100A70009C0080919D0090919E0060936700709310
:100A800068008093690090936A00A6D5DBC283302A
:100A900019F1843009F083C2C0906700D0906800DB
:100AA000E0906900F0906A00C701B60195D56093A7
:100AB0006600CB019927BC01990F880B990BBFD514
:100AC0009B01AC01C701B60122D520E030E048EC23
:100AD00052E441D681D5B6C260919F007091A000CA
:100AE0008091A1009091A2006093670070936800CC
:100AF0008093690090936A006FD5A4C2833019F186
:100B0000843009F04EC2C0906700D0906800E09039
:100B10006900F0906A00C701B6015ED56093660077
:100B2000CB019927BC01990F880B990B88D59B01A4
:100B3000AC01C701B601EBD420E030E048EC52E450
:100B40000AD64AD57FC26091A3007091A40080911B
:100B5000A5009091A6006093670070936800809351
:100B6000690090936A0038D56DC2833019F18430E2
:100B700009F019C2C0906700D0906800E090690049
:100B8000F0906A00C701B60127D560936600CB01DB
:100B90009927BC01990F880B990B51D59B01AC018A
:100BA000C701B601B4D420E030E048EC52E4D3D51C
:100BB00013D548C26091A7007091A8008091A90048
:100BC0009091AA0060936700709368008093690019
:100BD00090936A0001D536C2833031F0843009F039
:100BE000E4C1609164002EC28091AB006091AC00C2
:100BF000809364006093650025C2833019F18430CE
:100C000009F0D5C1C0906700D0906800E0906900FD
:100C1000F0906A00C701B601DFD460936600CB0193
:100C20009927BC01990F880B990B09D59B01AC0141
:100C3000C701B6016CD420E030E048EC52E48BD51B
:100C4000CBD400C26091AD007091AE008091AF0036
:100C50009091B00060936700709368008093690082
:100C600090936A00B9D4EEC1833031F0843009F03A
:100C7000A0C160916400E6C18091B1006091B200B2
:100C80008093640060936500DDC1909171009232A1
:100C900009F4BEC040F5903109F493C090F492304D
:100CA00009F456C038F4992309F445C0913009F489
:100CB00048C081C1933009F45CC0943009F470C01D
:100CC0007AC1933109F490C038F4913109F47FC0AE
:100CD000923109F483C06FC1903209F48CC0913213
:100CE00009F48FC068C1903409F4B9C090F491330D
:100CF00009F4A1C038F4933209F490C0903309F498
:100D000094C059C1923309F49DC0933309F4A0C033
:100D100052C1913509F4B6C038F4913409F4A5C034
:100D2000903509F4A9C047C1903609F4B2C0913694
:100D300009F4B5C040C1833009F03FC16091B300F0
:100D400081C1833009F03BC12093B3006FEF7AC1BA
:100D5000833031F0843009F034C16091640072C195
:100D60008091B4006091B500809364006093650049
:100D700069C1833079F0843009F025C18091B400D5
:100D80009091B500820F911D9093B5008093B400AF
:100D90006FEF58C11092B4002093B5006FEF52C1AD
:100DA000833031F0843009F010C1609164004AC191
:100DB0008091B6006091B7008093640060936500F5
:100DC00041C1833009F003C16091B8003BC1833059
:100DD00009F0FFC02093B8006FEF34C1833009F0F1
:100DE000FAC06091B9002EC1833009F0F6C020939B
:100DF000B9006FEF27C1833009F0F1C06091BA00EC
:100E000021C1833009F0EDC02093BA006FEF1AC101
:100E1000833009F0E8C06091BB0014C1833009F051
:100E2000E4C02093BB006FEF0DC1833009F0DFC039
:100E30006091BC0007C1833009F0DBC02093BC0087
:100E40006FEF00C1833009F0D6C06091BD00FAC0D9
:100E5000833009F0D2C02093BD006FEFF3C0833020
:100E600009F0CDC06091BE00EDC0833009F0C9C06B
:100E70002093BE006FEFE6C0833009F0C4C06091DC
:100E8000BF00E0C0833009F0C0C02093BF006FEF07
:100E9000D9C0833009F0BBC06091C000D3C083309B
:100EA00009F0B7C02093C0006FEFCCC090917100E3
:100EB0009031D9F028F4992359F0913079F0ABC0F2
:100EC000903201F1913221F1913109F0A4C013C0A7
:100ED000833009F0A2C06091C100B4C0833009F032
:100EE0009EC02093C1006FEFADC0833009F099C060
:100EF0006091C200A7C0833009F095C02093C20062
:100F00006FEFA0C0833009F090C06091C3009AC019
:100F1000833009F08CC02093C3006FEF93C0909191
:100F20007100913061F028F0903181F09131A1F0A1
:100F300080C0833009F07FC06091C40083C08330DB
:100F400009F07BC02093C4006FEF7CC0833009F0B0
:100F500076C06091C50076C0833009F072C02093DE
:100F6000C5006FEF6FC06FEF6DC06FEF6BC06FEFBD
:100F700069C063E267C06FEF65C06FEF63C06FEF7A
:100F800061C06FEF5FC06FEF5DC06FEF5BC06FEF71
:100F900059C06FEF57C06FEF55C06FEF53C06FEF81
:100FA00051C06FEF4FC06FEF4DC06FEF4BC06FEF91
:100FB00049C06FEF47C06FEF45C06FEF43C06FEFA1
:100FC00041C06FEF3FC06FEF3DC06FEF3BC06FEFB1
:100FD00039C06FEF37C06FEF35C06FEF33C06FEFC1
:100FE00031C06FEF2FC06FEF2DC06FEF2BC06FEFD1
:100FF00029C06FEF27C06FEF25C06FEF23C06FEFE1
:1010000021C06FEF1FC06FEF1DC06FEF1BC06FEFF0
:1010100019C06FEF17C06FEF15C06FEF13C06FEF00
:1010200011C06FEF0FC06FEF0DC06FEF0BC06FEF10
:1010300009C06FEF07C06FEF05C06FEF03C06FEF20
:1010400001C06FEF6FB9809173008F5F8093730061
:10105000FF91EF91BF91AF919F918F917F916F9190
:101060005F914F913F912F91FF90EF90DF90CF9044
:101070000F900FBE0F901F901895CF93DF93CDB7B1
:10108000DEB762970FB6F894DEBF0FBECDBF78947F
:1010900083B7826083BF83B7816083BF89B7816074
:1010A00089BF1EBC8EB582608EBD8EB581608EBD3F
:1010B0008FB581608FBD85B5846085BD85B5806441
:1010C00085BD329A319A3098379A1AB883EC95EFE9
:1010D000A8E4B0E480938B0090938C00A0938D00E3
:1010E000B0938E008AE999E9A9E4B0E480938F0077
:1010F00090939000A0939100B093920081E79DE3BC
:10110000AAE4B0E48093930090939400A093950098
:10111000B093960088E491EEAAE4B0E4809397003F
:1011200090939800A0939900B0939A008FE195E86E
:10113000ABE4B0E480939B0090939C00A0939D004F
:10114000B0939E0086EF98E2ACE4B0E480939F00F9
:101150009093A000A093A100B093A2008DEC9CEC12
:10116000ACE4B0E48093A3009093A400A093A50006
:10117000B093A60084EA90E7ADE4B0E48093A700C2
:101180009093A800A093A900B093AA008AE391E0ED
:101190009093AC008093AB008BE794E1AEE4B0E4B5
:1011A0008093AD009093AE00A093AF00B093B000D9
:1011B00085E49CE09093B2008093B10082E3809339
:1011C000B30089EA91E09093B5008093B40083E185
:1011D00099E09093B7008093B60083E38093B800C2
:1011E00084E38093B90085E38093BA0086E380931B
:1011F000BB0087E38093BC0088E38093BD0089E354
:101200008093BE008AE38093BF008BE38093C0008D
:101210008CE38093C1008DE38093C2008EE38093C2
:10122000C3008FE38093C40080E48093C50062E034
:101230008091CB00CCD780E398EFAFEFBFEF8093E6
:10124000CF009093D000A093D100B093D200E09152
:10125000DD00F091DE00138615861486DF011B96F3
:1012600033961E92AE17BF07E1F71092DC00BB2445
:10127000B394AA24A3947E018AE0E80EF11C6E01C7
:10128000E2E1CE0ED11C87E0982E9E0C0091DD008D
:101290001091DE00F8018585811157C0C801AED8D4
:1012A000882309F452C060EFC80122D877247394D0
:1012B000612C512C88248394C801C7D7682FC8019A
:1012C0006A8BC3D76A89613019F48130C1F434C0A4
:1012D000262D30E068131CC0F8018385881630F491
:1012E000E20FF31F8381872151F402C0881639F081
:1012F00060E0F8E0F81558F0F801848608C0F801BD
:10130000E60DF11D83818729838361E009C0582C94
:10131000F801E20FF31F9381872D80958923838342
:10132000C801B7D78394770C19F463947724739426
:10133000F7E0F61508F0C0CF80E4881530F4F80126
:101340005386511029C0B58627C0F801138615862B
:10135000148660E08DE03BD760E08BE038D7C4981E
:10136000BC9880EC8DB91FB862E082E030D78FEC7A
:1013700091E0909361008093600085B78C7F8160DD
:1013800085BF8BB780648BBF789400E010E00115B7
:101390001105E9F335D6FBCFF80183818823A9F243
:1013A0003396D70181918D93AC15BD05D9F7D7013F
:1013B000E0E09A1639F08D91E827F0E0E058FF4F11
:1013C000E491F7CF8989E81361CF8091D80081112A
:1013D0001EC08091DD009091DE0010D8B701809191
:1013E000DD009091DE00B2D764EB8091DD0090913A
:1013F000DE007ED78091DD009091DE0026D7182F89
:101400008091DD009091DE00F9D71123F9F08091F1
:10141000DD009091DE00F2D7882329F0BE016F5FD6
:101420007F4FC7011CD81091D900C7015FD8811721
:1014300018F48091D90002C0C70158D88093D90010
:101440008091DC008F5F8093DC0020CFA092D800D9
:10145000DECF88E08093CB0086E18093CC00E4E788
:10146000F0E0E491E093CD00E0E6F0E0E491E09379
:10147000CE0080E49FE1A0E0B0E08093D3009093A1
:10148000D400A093D500B093D60060E087E09FD64B
:10149000E3E7F0E0E491E0937400EFE5F0E0E4913D
:1014A000F0E0EE0FFF1FE65CFF4F85919491909363
:1014B00076008093750010927F0010928100109248
:1014C0008000EFE7F0E0129280E0E737F807D9F705
:1014D00084E291E09093EA008093E90084E790E051
:1014E0009093DE008093DD001092DC001092D80013
:1014F00089E08093D90081E08093DA008093DB005B
:101500000895EE0FFF1F0590F491E02D09945058B7
:10151000BB27AA270ED0E5C0D6D030F0DBD020F014
:1015200031F49F3F11F41EF4CBC00EF4E095E7FBBD
:10153000C1C0E92FE7D080F3BA17620773078407A9
:10154000950718F071F49EF5FFC00EF4E0950B2E90
:10155000BA2FA02D0B01B90190010C01CA01A00105
:101560001124FF27591B99F0593F50F4503E68F160
:101570001A16F040A22F232F342F4427585FF3CFA1
:10158000469537952795A795F0405395C9F77EF472
:101590001F16BA0B620B730B840BBAF09150A1F0BB
:1015A000FF0FBB1F661F771F881FC2F70EC0BA0F41
:1015B000621F731F841F48F4879577956795B795C9
:1015C000F7959E3F08F0B3CF9395880F08F09927C1
:1015D000EE0F97958795089504D06894B111B5C022
:1015E000089598D088F09F5790F0B92F9927B75158
:1015F000A0F0D1F0660F771F881F991F1AF0BA95D7
:10160000C9F712C0B13081F09FD0B1E008959CC0FD
:10161000672F782F8827B85F39F0B93FCCF38695CC
:1016200077956795B395D9F73EF490958095709529
:1016300061957F4F8F4F9F4F0895E89409C097FBA6
:101640003EF490958095709561957F4F8F4F9F4F99
:101650009923A9F0F92F96E9BB279395F6958795DD
:1016600077956795B795F111F8CFFAF4BB0F11F4A0
:1016700060FF1BC06F5F7F4F8F4F9F4F16C0882347
:1016800011F096E911C0772321F09EE8872F762F7D
:1016900005C0662371F096E8862F70E060E02AF0BE
:1016A0009A95660F771F881FDAF7880F96958795AA
:1016B00097F9089597F99F6780E870E060E00895D2
:1016C0009FEF80EC089500240A941616170618065A
:1016D0000906089500240A94121613061406050636
:1016E0000895092E0394000C11F4882352F0BB0FC7
:1016F00040F4BF2B11F460FF04C06F5F7F4F8F4F2A
:101700009F4F089557FD9058440F551F59F05F3F64
:1017100071F04795880F97FB991F61F09F3F79F013
:1017200087950895121613061406551FF2CF469595
:10173000F1DF08C0161617061806991FF1CF869517
:101740007105610508940895E894BB2766277727FB
:10175000CB0197F908950BD0C4CFB5DF28F0BADFDD
:1017600018F0952309F0A6CFABCF1124EECFCADF36
:10177000A0F3959FD1F3950F50E0551F629FF001A4
:10178000729FBB27F00DB11D639FAA27F00DB11DFD
:10179000AA1F649F6627B00DA11D661F829F222786
:1017A000B00DA11D621F739FB00DA11D621F839F0D
:1017B000A00D611D221F749F3327A00D611D231FE3
:1017C000849F600D211D822F762F6A2F11249F5731
:1017D00050408AF0E1F088234AF0EE0FFF1FBB1F54
:1017E000661F771F881F91505040A9F79E3F5105F3
:1017F00070F060CFAACF5F3FECF3983EDCF38695A4
:1018000077956795B795F795E7959F5FC1F7FE2B9D
:10181000880F911D9695879597F90895F894FFCFB5
:04182000230123017C
:00000001FF
