:1000000040C059C058C057C056C055C054C053C056
:1000100052C091C250C04FC04EC04DC04CC04BC02A
:100020004AC049C048C00000000038003500320016
:1000300000000000370034003100010204081020E5
:10004000408001020408102001020408102004046A
:100050000404040404040202020202020303030370
:1000600003030000000036003300300000000000F1
:100070000000000000030406000000000000000073
:100080004E0311241FBECFE5D4E0DEBFCDBF20E07C
:10009000A0E6B0E001C01D92AD39B207E1F710E073
:1000A000C1E4D0E003C02197FE0150D3C034D10792
:1000B000D1F78BD251C3A4CF8F929F92AF92BF92B0
:1000C000CF92DF92EF92FF92CF93DF93A0919200B5
:1000D000882311F03A2F01C030E08091930090E026
:1000E000880F991F8E599F4FC0909800D09099000B
:1000F000E0909A00F0909B0040E050E0BA01FC01D3
:10010000C591D49128812A2323130FC04A015B0192
:100110002FEF821A920AA20AB20A4C155D056E05EB
:100120007F0538F4B501A401EACF342F252FCB0188
:1001300004C030E020E080E090E0632F722FDF9178
:10014000CF91FF90EF90DF90CF90BF90AF909F90B6
:100150008F90089590E0FC01E459FF4F3491FC0129
:10016000E65CFF4F2491FC01E25BFF4FE491EE233C
:1001700031F1332381F0343039F0363049F0333007
:1001800051F48FB58F7702C08FB58F7D8FBD03C0BF
:1001900085B58F7D85BDF0E0EE0FFF1FEA5DFF4F57
:1001A000A591B4918FB7F894611105C09C91E22F8D
:1001B000E095E92302C0EC91E22BEC938FBF089508
:1001C000CF93DF9390E0FC01E65CFF4F2491FC01AC
:1001D000E25BFF4F8491882361F190E0880F991FC3
:1001E000FC01E05DFF4FC591D491FC01EA5DFF4F3A
:1001F000A591B491611109C09FB7F89488812095A9
:1002000082238883EC912E230BC0623061F49FB768
:10021000F8943881822F809583238883EC912E2B4C
:100220002C939FBF06C08FB7F894E8812E2B2883AC
:100230008FBFDF91CF9108953FB7F89480918200EE
:1002400090918300A0918400B091850022B708B6F8
:1002500000FE05C02F3F19F00196A11DB11D3FBF43
:10026000BA2FA92F982F8827820F911DA11DB11D8C
:10027000BC01CD0142E0660F771F881F991F4A9588
:10028000D1F708958F929F92AF92BF92CF92DF9253
:10029000EF92FF926B017C01CFDF4B015C01C11437
:1002A000D104E104F104E9F0C7DFDC01CB018819D6
:1002B0009909AA09BB09883E9340A105B10578F3C5
:1002C00021E0C21AD108E108F10888EE880E83E027
:1002D000981EA11CB11CC114D104E104F10421F742
:1002E000DECFFF90EF90DF90CF90BF90AF909F90C8
:1002F0008F900895CF92DF92EF92FF920F931F930A
:10030000CF93DF93CDB7DEB7C054D1400FB6F8948A
:10031000DEBF0FBECDBF2FB7F894809187009091BC
:100320008800A0918900B0918A002FBF409194006D
:100330005091950060919600709197008C019D01FD
:10034000041B150B260B370BB901A801403D574084
:100350006105710518F480919C00B1C080939400F0
:1003600090939500A0939600B093970010928F0001
:1003700010928E0010928D0010928C0010928B00C3
:1003800061E080919000E6DE6AEF70E080E090E04E
:1003900079DF61E08091900013DF60E08091900050
:1003A000D9DE64E170E080E090E06CDFF89461E019
:1003B00080919000CFDE8BE990E00197F1F762E049
:1003C00080919000FDDE83E290E00197F1F780E0FC
:1003D00073DE672B682B692B21F410929C007894B4
:1003E0003BC081E069DE672B682B692BB1F38E017E
:1003F0000F5F1F4F6E012FEBC21A2EEFD20A78014A
:1004000080E05ADEF701608371838283938381E009
:1004100053DEF7016483758386839783F8E0EF0EDC
:10042000F11CEC14FD0461F7789420E030E0F80151
:100430004081518162817381C480D580E680F780DC
:10044000411551056105710529F0C114D104E1047C
:10045000F10421F410929C0080E031C0F90183E0A6
:10046000F595E7958A95E1F7E557FF4F8081880F6D
:100470004C155D056E057F0508F4816080832F5F54
:100480003F4F085F1F4F2832310589F620918F00BA
:1004900030E040918B0080918C0090E0840F911DA2
:1004A00040918D00840F911D40918E00840F911D0D
:1004B00099272817390771F681E080939C00C05C6A
:1004C000DE4F0FB6F894DEBF0FBECDBFDF91CF91E8
:1004D0001F910F91FF90EF90DF90CF9008950895B6
:1004E000CF93C82F61E06CDEEC2FF0E0E459FF4FB2
:1004F000E491E43061F0E63091F0E330B1F48FB58F
:1005000080688FBD84E690E09BBD8ABD12C08FB528
:1005100080628FBD84E690E099BD88BD0AC085B534
:10052000806285BD84E683BD04C060E08C2FCF91DE
:1005300011CECF9108951F920F920FB60F921124F2
:100540002F933F938F939F93AF93BF938091870097
:1005500090918800A0918900B0918A00309181002B
:1005600023E0230F2D3720F40196A11DB11D05C0F6
:1005700026E8230F0296A11DB11D209381008093D0
:10058000870090938800A0938900B0938A0080919F
:10059000820090918300A0918400B0918500019623
:1005A000A11DB11D8093820090938300A0938400CD
:1005B000B0938500BF91AF919F918F913F912F9103
:1005C0000F900FBE0F901F901895789483B782609C
:1005D00083BF83B7816083BF89B7816089BF1EBC39
:1005E0008EB582608EBD8EB581608EBD8FB5816007
:1005F0008FBD85B5846085BD85B5806485BD329A23
:10060000319A309A379A1AB8CFB7F8948091860009
:1006100081111FC0E8E5F0E08491E4E4F0E09491FA
:10062000E82FF0E0EE0FFF1FE05DFF4FA591B491C2
:10063000EC91E92319F461E08AE08CDD61E08AE065
:10064000BFDD6C9A6E9A61E08DE0BADD61E08BE00F
:10065000B7DD809186008F5F80938600CFBF62E018
:1006600080919000ADDD80E398EFAFEFBFEF809316
:10067000940090939500A0939600B093970083E028
:100680002FDF85E02DDF86E02BDF89E029DFC0E06A
:10069000D0E030DE2097E9F3B3DCFBCF88E0809335
:1006A000900086E180939100E2E4F0E0E491E09331
:1006B0009200E6E5F0E0E491E093930080E89EE3A9
:1006C000A0E0B0E08093980090939900A0939A00E6
:1006D000B0939B0060E087E073DDE1E4F0E0E4913B
:1006E000E0937300E5E5F0E0E491F0E0EE0FFF1F2A
:1006F000EE59FF4F8591949190937500809374000B
:1007000010927E001092800010927F00EEE7F0E0E1
:10071000129280E0E637F807D9F78FE692E09093DF
:1007200072008093710083E790E09093660080935D
:100730006500109264001092600089E0809361006F
:1007400081E080936200809363000895EE0FFF1FA5
:0C0750000590F491E02D0994F894FFCF7F
:00000001FF
