:10000000E0C02AC502C502C101C100C1FFC0FEC0D7
:10001000FDC0B1C448C5FAC0F9C0F8C0F7C0F6C009
:10002000F5C0F4C0F3C00000000037003400310018
:100030000000000038003500320004040404040409
:100040000404020202020202030303030303010287
:100050000408102040800102040810200102040856
:100060001020000000000000000000030406000053
:10007000000000000000000000006410B71DC82050
:100080006E3BAC30D9269041DC76F4516B6B5861F5
:10009000B24D3C7105502083B8ED44930FF0E8A3B6
:1000A000D6D68CB361CBB0C2649BD4D2D38678E26F
:1000B0000AA01CF2BDBD005EBCE2613FDD83C29CB4
:1000C0007E20A3FD1F419DC3217FFCA2401E5F0136
:1000D000E3BD3E6082DC237D9FC1421CFEA0E1BFE8
:1000E0005D0380DE3C62BEE0025CDF81633D7C221A
:1000F000C09E1D43A1FF4618FAA427799BC584DA48
:100100003866E5BB5907DB856739BAE406581947F5
:10011000A5FB7826C49A653BD987045AB8E6A7F9A7
:100120001B45C6987A24F8A6441A99C7257B3A64D9
:1001300086D85B05E7B98CD2306EEDB3510F4E1007
:10014000F2AC2F7193CD114FADF3702ECC92D38DB5
:100150006F31B2EC0E50AFF1134DCE90722C6D3367
:10016000D18F0C52B0EE326C8ED0530DEFB1F0AE99
:100170004C1291CF2D73CA947628ABF517490856C7
:10018000B4EA6937D58B5709EBB536688AD495CB75
:100190002977F4AA4816E9B7550B88D6346A2B7527
:1001A00097C94A14F6A8742AC896154BA9F7B6E859
:1001B0000A54D7896B350000000036003300300048
:1001C000D30B11241FBECFE5D4E0DEBFCDBF10E0BE
:1001D000A0E6B0E0E6ECFAE102C005900D92A4368C
:1001E000B107D9F720E0A4E6B0E001C01D92AB3E14
:1001F000B207E1F710E0C1EED0E003C02197FE01A5
:1002000069DBC03ED107D1F7DDD85BCCF9CE8F9248
:100210009F92AF92BF92CF92DF92EF92FF92CF93D5
:10022000DF93A091E000882311F03A2F01C030E065
:100230008091E10090E0880F991F8A549E4FC090F2
:10024000E600D090E700E090E800F090E90040E0A0
:1002500050E0BA01FC01C591D49128812A232313CF
:100260000FC04A015B012FEF821A920AA20AB20A5A
:100270004C155D056E057F0538F4B501A401EACF84
:10028000342F252FCB0104C030E020E080E090E047
:10029000632F722FDF91CF91FF90EF90DF90CF907F
:1002A000BF90AF909F908F900895843039F0863042
:1002B00049F0833051F48FB58F7702C08FB58F7DB1
:1002C0008FBD089585B58F7D85BD08951F93CF930C
:1002D000DF93282F30E0F901EE59FF4F8491F901A7
:1002E000E25BFF4FD491F901E65CFF4FC491CC2350
:1002F000C1F0162F8111D9DFEC2FF0E0EE0FFF1FB8
:10030000E05DFF4FA591B4918FB7F894111105C02E
:100310009C91ED2FE095E92302C0EC91ED2BEC933D
:100320008FBFDF91CF911F910895CF93DF9390E01E
:10033000FC01E25BFF4F2491FC01E65CFF4F8491DE
:10034000882361F190E0880F991FFC01EA5DFF4F5F
:10035000C591D491FC01E05DFF4FA591B49161116D
:1003600009C09FB7F8948881209582238883EC91F7
:100370002E230BC0623061F49FB7F8943881822F2E
:10038000809583238883EC912E2B2C939FBF06C0EE
:100390008FB7F894E8812E2B28838FBFDF91CF9100
:1003A00008953FB7F8948091830090918400A091C4
:1003B0008500B091860022B708B600FE05C02F3F29
:1003C00019F00196A11DB11D3FBFBA2FA92F982F7B
:1003D0008827820F911DA11DB11DBC01CD0143E0F5
:1003E000660F771F881F991F4A95D1F708958F923E
:1003F0009F92AF92BF92CF92DF92EF92FF926B01EA
:100400007C01CFDF4B015C01C114D104E104F10494
:10041000E9F0C7DFDC01CB0188199909AA09BB09FA
:10042000883E9340A105B10578F321E0C21AD108B6
:10043000E108F10888EE880E83E0981EA11CB11C2B
:10044000C114D104E104F10421F7DECFFF90EF9055
:10045000DF90CF90BF90AF909F908F900895CF92F4
:10046000DF92EF92FF920F931F93CF93DF93CDB75D
:10047000DEB7C054D1400FB6F894DEBF0FBECDBF7B
:100480002FB7F8948091D5009091D600A091D70015
:10049000B091D8002FBF4091E2005091E3006091ED
:1004A000E4007091E5008C019D01041B150B260BE7
:1004B000370BB901A801403D57406105710518F49B
:1004C0008091EA00B1C08093E2009093E300A09392
:1004D000E400B093E5001092DD001092DC00109271
:1004E000DB001092DA001092D90061E08091DE000A
:1004F000EDDE6AEF70E080E090E079DF61E080910E
:10050000DE0013DF60E08091DE00E0DE64E170E099
:1005100080E090E06CDFF89461E08091DE00D6DE50
:100520008CE490E00197F1F762E08091DE00FDDE5F
:1005300080E190E00197F1F780E069DE672B682B9E
:10054000692B21F41092EA0078943BC081E05FDED1
:10055000672B682B692BB1F38E010F5F1F4F6E0164
:100560002FEBC21A2EEFD20A780180E050DEF7019D
:10057000608371838283938381E049DEF701648322
:10058000758386839783F8E0EF0EF11CEC14FD046D
:1005900061F7789420E030E0F80140815181628178
:1005A0007381C480D580E680F780411551056105CF
:1005B000710529F0C114D104E104F10421F4109271
:1005C000EA0080E031C0F90183E0F595E7958A956E
:1005D000E1F7E752FF4F8081880F4C155D056E05EE
:1005E0007F0508F4816080832F5F3F4F085F1F4FB6
:1005F0002832310589F62091DD0030E04091D900A4
:100600008091DA0090E0840F911D4091DB00840F0F
:10061000911D4091DC00840F911D992728173907FF
:1006200071F681E08093EA00C05CDE4F0FB6F8946B
:10063000DEBF0FBECDBFDF91CF911F910F91FF9015
:10064000EF90DF90CF90089508950895FC01908178
:100650000180F281E02DF8948181892B81832281B0
:10066000892F809528232283A2E0B0E01197F1F72B
:10067000218182238183A0E1B0E01197F1F780818D
:100680007894E6E6F0E03197F1F7982381E009F4F9
:1006900080E00895FC0190810180F281E02D892F96
:1006A000809560FF12C0F894228182238283818129
:1006B000892B8183A0E1B0E01197F1F78281982B1B
:1006C000928378948AE690E011C0F8942281822384
:1006D00082838181892B8183AEE7B0E01197F1F7A6
:1006E0008281982B9283789486E090E00197F1F7CD
:1006F0000895EF92FF920F931F93CF93DF93EC0136
:10070000E62E08E010E0FF24F39461E08F2D8E21A7
:1007100009F460E0CE01BEDFFF0C01501109A9F71A
:10072000F894E981FA819181888180958923818378
:10073000E981FA81928188818095892382837894E6
:10074000DF91CF911F910F91FF90EF900895CF927D
:10075000DF92EF92FF920F931F93CF93DF931F923D
:10076000CDB7DEB78C01F62E65E57983C2DFCF2CDD
:100770007981D72E760188E0E80EF11CF6016191AF
:100780006F01C801B6DFCE14DF04C1F70F90DF910F
:10079000CF911F910F91FF90EF90DF90CF90089530
:1007A000CF93DF93ECE6F0E08491E8E5F0E0D491BC
:1007B000E4E4F0E0C491CC2391F0811176DDEC2FDC
:1007C000F0E0EE0FFF1FEA54FE4FA591B491EC91BB
:1007D000ED2329F0BC98000010926F0002C0BC9A73
:1007E0000000DF91CF910895FC0190810180F2819A
:1007F000E02DF8948181292F20958223818378949C
:100800008DE7815009F130813923D9F3F894828141
:10081000822382838181892B81837894ACEBB3E03E
:100820001197F1F7F894818128232183A8E8B0E09B
:100830001197F1F78081982381E009F080E07894A6
:10084000E0E3F3E03197F1F70895AF92BF92CF92D2
:10085000DF92EF92FF920F931F93CF93DF938B0161
:10086000BC018091C7009091C80071DF6EEB809150
:10087000C7009091C8003DDFE801680189E0C80E1B
:10088000D11CA090C700B090C80088E0E82EF12CE1
:1008900001E010E0C501DADE8111102B000F81E0CC
:1008A000E81AF108B9F71993CC15DD0551F78091D5
:1008B000C7009091C80098DF91E0813009F090E086
:1008C000892FDF91CF911F910F91FF90EF90DF90D3
:1008D000CF90BF90AF9008950F931F93CF93DF9366
:1008E000CDB7DEB729970FB6F894DEBF0FBECDBFE8
:1008F000FC012081203199F18C018091C7009091F9
:10090000C80072DF882349F1BE016F5F7F4FC801C5
:100910009CDF882311F1DE011196E0E088E08A0F68
:100920008A1739F09D91E927F0E0EA54FF4FE491EE
:10093000F7CF8985E81311C08D818F3361F020F4E2
:100940008F3159F489E00CC08F3519F08F3739F0A9
:1009500004C08BE005C08AE003C080E001C08CE0E9
:1009600029960FB6F894DEBF0FBECDBFDF91CF91B1
:100970001F910F9108951F920F920FB60F9211249D
:100980002F933F938F939F93AF93BF938091D50005
:100990009091D600A091D700B091D80030918200FC
:1009A00026E0230F2D3720F40296A11DB11D05C0AE
:1009B00029E8230F0396A11DB11D20938200809387
:1009C000D5009093D600A093D700B093D800809123
:1009D000830090918400A0918500B09186000196DB
:1009E000A11DB11D8093830090938400A093850086
:1009F000B0938600BF91AF919F918F913F912F91BE
:100A00000F900FBE0F901F9018951F920F920FB668
:100A10000F9211242F933F934F935F936F937F9384
:100A20008F939F93AF93BF93EF93FF93E0916200F7
:100A3000F09163000995FF91EF91BF91AF919F9164
:100A40008F917F916F915F914F913F912F910F9077
:100A50000FBE0F901F9018951F920F920FB60F9216
:100A600011242F933F934F935F936F937F938F93B3
:100A70009F93AF93BF93EF93FF93E0916000F0914A
:100A800061000995FF91EF91BF91AF919F918F9177
:100A90007F916F915F914F913F912F910F900FBE7A
:100AA0000F901F9018951F920F920FB60F9211245E
:100AB000CF92DF92EF92FF922F933F934F935F93EA
:100AC0006F937F938F939F93AF93BF93EF93FF9316
:100AD0006FB180916F00813059F030F0823061F455
:100AE00060936C006FEF53C460936E006FEF4FC460
:100AF00060936D006FEF4BC490916E00903209F4DB
:100B0000B8C028F4992369F0903191F0D3C39034A0
:100B100009F473C3903509F4A9C3903309F0CAC32B
:100B20005BC280916D00882309F431C46FEF2FC43C
:100B300090916D00903399F0903409F47BC090321D
:100B400009F0BAC3843039F0853039F0833009F4C4
:100B5000B5C36FEF1CC462E41AC469E618C48430DC
:100B600099F1F8F4833009F0ABC32FB7F894609192
:100B7000D5007091D6008091D7009091D8002FBFFA
:100B80006093700070937100809372009093730073
:100B900028E130E040E050E071D6622F6295607F3E
:100BA000F6C3853069F1863009F08AC36091700020
:100BB0007091710080917200909173002CE330E08D
:100BC00040E050E05BD6E3C360917000709171002B
:100BD000809172009091730028E130E040E050E095
:100BE0004DD69B01AC01A0E1BEE06AD62CE330E01B
:100BF00040E050E043D66CE3269F602D1124C7C32C
:100C000060917000709171008091720090917300FA
:100C10002CE3C22ED12CE12CF12CA70196012ED66B
:100C20009B01AC01ACE3B0E04BD6A701960126D600
:100C3000622FADC3833019F0843049F043C381E0A3
:100C40006D3409F080E080936B006FEFA0C380915A
:100C50006B00882309F438C3633509F037C39CE07F
:100C600088E10FB6F894A89581BD0FBE91BD6FEFD6
:100C70008EC390916D00953009F4ECC088F49230E9
:100C800009F470C030F49923E9F0913009F442C0BE
:100C90001FC3933009F48EC0943009F4B3C018C355
:100CA000903209F44FC138F4903109F4FBC091310E
:100CB00009F420C10DC3903309F455C1903409F4EF
:100CC0007AC106C38330A1F0843009F003C31092C7
:100CD000660020E030E048EC52E4609167007091DB
:100CE00068008091690090916A0060D605D64FC374
:100CF00060918700709188008091890090918A00AE
:100D000060936700709368008093690090936A0015
:100D1000F3D53DC38330A1F0843009F0DDC21092D9
:100D2000660020E030E048EC52E46091670070918A
:100D300068008091690090916A0038D6DDD527C39C
:100D400060918B0070918C0080918D0090918E004D
:100D500060936700709368008093690090936A00C5
:100D6000CBD515C38330A1F0843009F0B7C21092FF
:100D7000660020E030E048EC52E46091670070913A
:100D800068008091690090916A0010D6B5D5FFC2C5
:100D900060918F00709190008091910090919200ED
:100DA00060936700709368008093690090936A0075
:100DB000A3D5EDC28330A1F0843009F091C2109226
:100DC000660020E030E048EC52E4609167007091EA
:100DD00068008091690090916A00E8D58DD5D7C2EE
:100DE000609193007091940080919500909196008D
:100DF00060936700709368008093690090936A0025
:100E00007BD5C5C28330A1F0843009F06BC210924B
:100E1000660020E030E048EC52E460916700709199
:100E200068008091690090916A00C0D565D5AFC215
:100E300060919700709198008091990090919A002C
:100E400060936700709368008093690090936A00D4
:100E500053D59DC28330A1F0843009F045C2109271
:100E6000660020E030E048EC52E460916700709149
:100E700068008091690090916A0098D53DD587C23D
:100E800060919B0070919C0080919D0090919E00CC
:100E900060936700709368008093690090936A0084
:100EA0002BD575C28330A1F0843009F01FC2109297
:100EB000660020E030E048EC52E4609167007091F9
:100EC00068008091690090916A0070D515D55FC265
:100ED00060919F007091A0008091A1009091A2006C
:100EE00060936700709368008093690090936A0034
:100EF00003D54DC28330A1F0843009F0F9C11092BE
:100F0000660020E030E048EC52E4609167007091A8
:100F100068008091690090916A0048D5EDD437C28D
:100F20006091A3007091A4008091A5009091A6000B
:100F300060936700709368008093690090936A00E3
:100F4000DBD425C2833031F0843009F0D3C1609105
:100F500064001DC28091A7006091A8008093640086
:100F60006093650014C28330A1F0843009F0C4C1DD
:100F70001092660020E030E048EC52E46091670097
:100F8000709168008091690090916A000FD5B4D487
:100F9000FEC16091A9007091AA008091AB00909170
:100FA000AC00609367007093680080936900909331
:100FB0006A00A2D4ECC1833031F0843009F09EC1C4
:100FC00060916400E4C18091AD006091AE008093B7
:100FD000640060936500DBC190916D00923209F46A
:100FE000BEC040F5903109F493C090F4923009F4FA
:100FF00056C038F4992309F445C0913009F448C02B
:101000007FC1933009F45CC0943009F470C078C19A
:10101000933109F490C038F4913109F47FC09231D2
:1010200009F483C06DC1903209F48CC0913209F487
:101030008FC066C1903409F4B9C090F4913309F4BB
:10104000A1C038F4933209F490C0903309F494C0ED
:1010500057C1923309F49DC0933309F4A0C050C125
:10106000913509F4B6C038F4913409F4A5C090352F
:1010700009F4A9C045C1903609F4B2C0913609F40B
:10108000B5C03EC1833009F03DC16091AF007FC162
:10109000833009F039C16093AF006FEF78C18330BE
:1010A00031F0843009F032C16091640070C18091E8
:1010B000B0006091B100809364006093650067C1E7
:1010C000833079F0843009F023C18091B000909191
:1010D000B100860F911D9093B1008093B0006FEF27
:1010E00056C11092B0006093B1006FEF50C18330D1
:1010F00031F0843009F00EC16091640048C18091E4
:10110000B2006091B30080936400609365003FC1BA
:10111000833009F001C16091B40039C1833009F016
:10112000FDC06093B4006FEF32C1833009F0F8C0A6
:101130006091B5002CC1833009F0F4C06093B50014
:101140006FEF25C1833009F0EFC06091B6001FC179
:10115000833009F0EBC06093B6006FEF18C18330A5
:1011600009F0E6C06091B70012C1833009F0E2C017
:101170006093B7006FEF0BC1833009F0DDC0609161
:10118000B80005C1833009F0D9C06093B8006FEF93
:10119000FEC0833009F0D4C06091B900F8C083303C
:1011A00009F0D0C06093B9006FEFF1C0833009F04F
:1011B000CBC06091BA00EBC0833009F0C7C0609328
:1011C000BA006FEFE4C0833009F0C2C06091BB0089
:1011D000DEC0833009F0BEC06093BB006FEFD7C0A4
:1011E000833009F0B9C06091BC00D1C0833009F0F0
:1011F000B5C06093BC006FEFCAC090916D00903194
:10120000D9F028F4992359F0913079F0A9C090329F
:1012100001F1913221F1913109F0A2C013C0833064
:1012200009F0A0C06091BD00B2C0833009F09CC03D
:101230006093BD006FEFABC0833009F097C0609141
:10124000BE00A5C0833009F093C06093BE006FEF6D
:101250009EC0833009F08EC06091BF0098C083307B
:1012600009F08AC06093BF006FEF91C090916D004C
:10127000913061F028F0903181F09131A1F07EC081
:10128000833009F07DC06091C00081C0833009F0D7
:1012900079C06093C0006FEF7AC0833009F074C0EA
:1012A0006091C10074C0833009F070C06093C100C8
:1012B0006FEF6DC06FEF6BC06FEF69C063E267C027
:1012C0006FEF65C06FEF63C06FEF61C06FEF5FC01E
:1012D0006FEF5DC06FEF5BC06FEF59C06FEF57C02E
:1012E0006FEF55C06FEF53C06FEF51C06FEF4FC03E
:1012F0006FEF4DC06FEF4BC06FEF49C06FEF47C04E
:101300006FEF45C06FEF43C06FEF41C06FEF3FC05D
:101310006FEF3DC06FEF3BC06FEF39C06FEF37C06D
:101320006FEF35C06FEF33C06FEF31C06FEF2FC07D
:101330006FEF2DC06FEF2BC06FEF29C06FEF27C08D
:101340006FEF25C06FEF23C06FEF21C06FEF1FC09D
:101350006FEF1DC06FEF1BC06FEF19C06FEF17C0AD
:101360006FEF15C06FEF13C06FEF11C06FEF0FC0BD
:101370006FEF0DC06FEF0BC06FEF09C06FEF07C0CD
:101380006FEF05C06FEF03C06FEF01C06FEF6FB974
:1013900080916F008F5F80936F00FF91EF91BF91FD
:1013A000AF919F918F917F916F915F914F913F91FD
:1013B0002F91FF90EF90DF90CF900F900FBE0F9086
:1013C0001F901895CF93DF93CDB7DEB762970FB616
:1013D000F894DEBF0FBECDBF789483B7826083BF21
:1013E00083B7816083BF89B7816089BF1EBC8EB51A
:1013F00082608EBD8EB581608EBD8FB581608FBDE0
:1014000085B5846085BD85B5806485BD329A319A85
:101410003098379A1AB8109287001092880010926C
:10142000890010928A0010928B0010928C0010920A
:101430008D0010928E0010928F00109290001092EA
:1014400091001092920010929300109294001092CA
:1014500095001092960010929700109298001092AA
:10146000990010929A0010929B0010929C0010928A
:101470009D0010929E0010929F001092A00010926A
:10148000A1001092A2001092A3001092A40010924A
:10149000A5001092A6001092A8001092A70010922A
:1014A000A9001092AA001092AB001092AC0010920A
:1014B000AE001092AD0082E38093AF001092B100B5
:1014C0001092B0001092B3001092B2001092B400CB
:1014D0008AE28093B5001092B6008093B700109214
:1014E000B8008093B9001092BA001092BB0010921D
:1014F000BC001092BD001092BE001092BF0010926E
:10150000C0001092C10062E08091DE000ED780E33F
:1015100098EFAFEFBFEF8093E2009093E300A093CA
:10152000E400B093E500E091C700F091C800138695
:1015300015861486DF011B9633961E92AE17BF07E1
:10154000E1F71092C600BB24B394AA24A3947E01B1
:101550008AE0E80EF11C6E0192E1C90ED11CF7E0A1
:101560009F2E9E0C0091C7001091C800F801858540
:10157000811157C0C80138D9882309F452C060EFDF
:10158000C801B7D877247394612C512C8824839494
:10159000C8015CD8682FC8016A8B58D86A89613045
:1015A00019F48130C1F434C0262D30E068131CC01A
:1015B000F8018385881630F4E20FF31F83818721B9
:1015C00051F402C0881639F060E0F8E0F81558F0E0
:1015D000F801848608C0F801E60DF11D8381872992
:1015E000838361E009C0582CF801E20FF31F938157
:1015F000872D809589238383C8014CD88394770CE9
:1016000019F4639477247394F7E0F61508F0C0CFCB
:1016100080E4881530F4F8015386511066C0B58611
:1016200064C0F80113861586148660E08DE07DD6CF
:1016300060E08BE07AD6C498BC9880EC8DB91FB876
:1016400062E082E072D680ED93E090936100809337
:10165000600085B78C7F816085BF8BB780648BBF4E
:101660007894ACEBB4E04FEF5FEFBA018D91882333
:1016700009F433C0E82FE427EF7094E0E99FF0010C
:101680001124EA58FF4F059115912591349194E06A
:1016900076956795579547959A95D1F7042715271D
:1016A00026273727E82FE295EF70E027EF7084E0D8
:1016B000E89FF0011124EA58FF4F4591559165913B
:1016C0007491E4E03695279517950795EA95D1F73B
:1016D0004027512762277327C9CF00E010E0BFD60B
:1016E00001151105E1F38CD4FACFF8018381882329
:1016F00009F497CF3396D70181918D93AC15BD0531
:10170000D9F7D701E0E09A1639F08D91E827F0E09B
:10171000EA54FF4FE491F7CF8989E81323CF8091F2
:10172000C20081111EC08091C7009091C8005CD892
:10173000B7018091C7009091C80009D864EB8091EF
:10174000C7009091C800D5D78091C7009091C8007C
:101750007DD7182F8091C7009091C80045D81123DC
:10176000F9F08091C7009091C8003ED8882329F0F5
:10177000BE016F5F7F4FC70168D81091C300C701DA
:10178000ABD8811718F48091C30002C0C701A4D858
:101790008093C3008091C6008F5F8093C600E2CE25
:1017A000A092C200DECF88E08093DE0086E18093C5
:1017B000DF00E6E5F0E0E491E093E000E2E4F0E051
:1017C000E491E093E10080E49FE1A0E0B0E0809349
:1017D000E6009093E700A093E800B093E90060E092
:1017E00087E0A3D5E5E5F0E0E491E0937400E1E45F
:1017F000F0E0E491F0E0EE0FFF1FEA54FE4F859118
:101800009491909376008093750010927F001092CF
:10181000810010928000EFE7F0E0129280E0E7375D
:10182000F807D9F785E293E09093D4008093D30032
:1018300084E790E09093C8008093C7001092C600A0
:101840001092C20089E08093C30081E08093C400BD
:101850008093C5002FB7F8948091D5009091D60061
:10186000A091D700B091D8002FBF809370009093C3
:101870007100A0937200B09373000895A1E21A2E34
:10188000AA1BBB1BFD010DC0AA1FBB1FEE1FFF1F24
:10189000A217B307E407F50720F0A21BB30BE40B74
:1018A000F50B661F771F881F991F1A9469F76095BB
:1018B0007095809590959B01AC01BD01CF01089575
:1018C0000FD0A59F900DB49F900DA49F800D911DEA
:1018D00011240895EE0FFF1F0590F491E02D099457
:1018E000A29FB001B39FC001A39F01D0B29F700D12
:1018F000811D1124911D089504D06894B11150C028
:10190000089533D088F09F5790F0B92F9927B75199
:10191000A0F0D1F0660F771F881F991F1AF0BA95B3
:10192000C9F712C0B13081F03AD0B1E0089537C0A4
:10193000672F782F8827B85F39F0B93FCCF38695A9
:1019400077956795B395D9F73EF490958095709506
:1019500061957F4F8F4F9F4F089557FD9058440FCB
:10196000551F59F05F3F71F04795880F97FB991FFE
:1019700061F09F3F79F087950895121613061406BB
:10198000551FF2CF4695F1DF08C016161706180648
:10199000991FF1CF86957105610508940895E89423
:1019A000BB2766277727CB0197F908950BD078C01E
:1019B00069D028F06ED018F0952309F05AC05FC0A6
:1019C0001124EECFCADFA0F3959FD1F3950F50E01D
:1019D000551F629FF001729FBB27F00DB11D639FE1
:1019E000AA27F00DB11DAA1F649F6627B00DA11D87
:1019F000661F829F2227B00DA11D621F739FB00D2D
:101A0000A11D621F839FA00D611D221F749F33279C
:101A1000A00D611D231F849F600D211D822F762F35
:101A20006A2F11249F5750408AF0E1F088234AF032
:101A3000EE0FFF1FBB1F661F771F881F915050407E
:101A4000A9F79E3F510570F014C0AACF5F3FECF399
:101A5000983EDCF3869577956795B795F795E7956A
:101A60009F5FC1F7FE2B880F911D9695879597F97B
:101A7000089597F99F6780E870E060E008959FEF10
:101A800080EC089500240A94161617061806090615
:101A9000089500240A9412161306140605060895E4
:101AA000092E0394000C11F4882352F0BB0F40F46C
:101AB000BF2B11F460FF04C06F5F7F4F8F4F9F4FAC
:061AC0000895F894FFCF29
:041AC60024032403CE
:00000001FF
